:020000040800F2
:1000000000000220D5060008D1060008052D0008D2
:10001000D1060008D1060008D10600080000000043
:10002000000000000000000000000000D1060008F1
:10003000D106000800000000D1060008F52C0008D9
:10004000D1060008D1060008D1060008D106000834
:10005000D1060008D1060008D1060008D106000824
:10006000D1060008D1060008D1060008691400086E
:1000700075140008AD1E0008811400088D140008D6
:10008000D1060008BD820008D1060008D10600088C
:10009000D1060008D1060008D1060008D1060008E4
:1000A000D1060008D1060008D1060008D1060008D4
:1000B000D1060008D1060008D1060008E182000838
:1000C000D1060008ED820008D1060008D10600081C
:1000D000D1060008D1060008D1060008D1060008A4
:1000E000D1060008D106000800000000D106000873
:1000F000D1060008D1060008D1060008D106000884
:10010000D1060008D1060008D1060008D106000873
:10011000D1060008D1060008D1060008D106000863
:10012000D1060008D1060008D1060008D106000853
:10013000D1060008D1060008D1060008D106000843
:1001400000000000000000000000000000000000AF
:10015000D1060008D1060008D1060008D106000823
:10016000F9820008D1060008D1060008D10600086F
:10017000D1060008D1060008D1060008D106000803
:10018000D1060008D1060008D1060008D1060008F3
:10019000D1060008D1060008D1060008D1060008E3
:1001A000D1060008D1060008D1060008D1060008D3
:1001B000FD240008D1060008D1060008D106000879
:1001C000D1060008D1060008D1060008D1060008B3
:1001D000D1060008D1060008D1060008D1060008A3
:1001E000D1060008D1060008D1060008D106000893
:1001F000D1060008D1060008D1060008D106000883
:10020000D1060008D1060008D1060008D106000872
:10021000D1060008D1060008D1060008D106000862
:10022000D1060008D1060008D10600080000000031
:10023000D1060008D106000800000000D106000821
:10024000D1060008D1060008D1060008D106000832
:10025000D1060008D1060008D1060008D106000822
:10026000D1060008D1060008D1060008D106000812
:10027000D1060008D1060008D106000800000000E1
:10028000D1060008D1060008D106000800000000D1
:0802900000000000D106000887
:1002980010B5054C237833B9044B13B10448AFF3B8
:1002A80000800123237010BD80000024000000009E
:1002B800D09C000808B5034B1BB103490348AFF3B2
:1002C800008008BD0000000084000024D09C0008C5
:1002D80081F0004102E000BF83F0004330B54FEAEF
:1002E80041044FEA430594EA050F08BF90EA020F5C
:1002F8001FBF54EA000C55EA020C7FEA645C7FEAEF
:10030800655C00F0E2804FEA5454D4EB5555B8BF11
:100318006D420CDD2C4480EA020281EA030382EA82
:10032800000083EA010180EA020281EA0303362D14
:1003380088BF30BD11F0004F4FEA01314FF4801CE7
:100348004CEA113102D0404261EB410113F0004FF9
:100358004FEA03334CEA133302D0524263EB4303B0
:1003680094EA050F00F0A780A4F10104D5F1200E4E
:100378000DDB02FA0EFC22FA05F2801841F10001A9
:1003880003FA0EF2801843FA05F359410EE0A5F17D
:1003980020050EF1200E012A03FA0EFC28BF4CF0AE
:1003A800020C43FA05F3C01851EBE37101F0004564
:1003B80007D54FF0000EDCF1000C7EEB00006EEB71
:1003C8000101B1F5801F1BD3B1F5001F0CD34908FB
:1003D8005FEA30004FEA3C0C04F101044FEA445252
:1003E80012F5800F80F09A80BCF1004F08BF5FEAD9
:1003F800500C50F1000041EB045141EA050130BDB9
:100408005FEA4C0C404141EB0101013C28BFB1F5CA
:10041800801FE9D291F0000F04BF01460020B1FA15
:1004280081F308BF2033A3F10B03B3F120020CDAE8
:100438000C3208DD02F1140CC2F10C0201FA0CF0C6
:1004480021FA02F10CE002F11402D8BFC2F1200C2B
:1004580001FA02F120FA0CFCDCBF41EA0C019040E1
:10046800E41AA2BF01EB0451294330BD6FEA04042A
:100478001F3C1CDA0C340EDC04F11404C4F1200215
:1004880020FA04F001FA02F340EA030021FA04F327
:1004980045EA030130BDC4F10C04C4F1200220FA7E
:1004A80002F001FA04F340EA0300294630BD21FABC
:1004B80004F0294630BD94F0000F83F4801306BF82
:1004C80081F480110134013D4EE77FEA645C18BF76
:1004D8007FEA655C29D094EA050F08BF90EA020F0D
:1004E80005D054EA000C04BF1946104630BD91EA05
:1004F800030F1EBF0021002030BD5FEA545C05D108
:100508004000494128BF41F0004130BD14F5800446
:100518003CBF01F5801130BD01F0004545F0FE41BA
:1005280041F470014FF0000030BD7FEA645C1ABFEF
:10053800194610467FEA655C1CBF0B46024650EA26
:10054800013406BF52EA033591EA030F41F4002152
:1005580030BD00BF90F0000F04BF0021704730B5D8
:100568004FF4806404F132044FF000054FF00001AD
:1005780050E700BF90F0000F04BF0021704730B56E
:100588004FF4806404F1320410F0004548BF404243
:100598004FF000013EE700BF42004FEAE2014FEA98
:1005A80031014FEA02701FBF12F07F4393F07F4F73
:1005B80081F06051704732F07F4208BF704793F076
:1005C8007F4F04BF41F40021704730B54FF4607489
:1005D80001F0004521F000411CE700BF50EA01028C
:1005E80008BF704730B54FF000050AE050EA010235
:1005F80008BF704730B511F0004502D5404261EBA5
:1006080041014FF4806404F132045FEA915C3FF4E5
:10061800D8AE4FF003025FEADC0C18BF03325FEA82
:10062800DC0C18BF033202EBDC02C2F1200300FA33
:1006380003FC20FA02F001FA03FE40EA0E0021FA58
:1006480002F11444BDE600BF30B4194C0022194B26
:10065800D4F88810184841F47001184DC4F888106F
:100668001C68174944F001041C601A611C6820408A
:1006780018609A61DA611A629A62DA621A635A63D6
:100688009A63DA631A645A64186820F48020186040
:100698001A662B681940B1F1005F02D2094B01229A
:1006A8001A60034B4FF0006230BC9A60704700BF7D
:1006B80000ED00E0004402587FEDF6EA0010005C0F
:1006C8000000FFFF08810051FEE700BF0D4B0E4AF6
:1006D800934206D00D4951F8040B43F8040B93429A
:1006E800F9D10B4B0B4A934204D0002143F8041B69
:1006F8009342FBD1FFF7A8FF09F04CF800F0AEF8E1
:10070800FEE700BF000000247C000024DC9C0008F9
:1007180080000024A81E0024704700BF704700BF57
:10072800002A00F08680013A2DE9F04F22F00103FB
:1007380088464FF000092DED048B9FED3E9A83B05B
:1007480001933D4D4FF0000BDFF804A13B4F5FFADA
:100758008BF63B48DFED3B8A0BF1010B314601F08C
:100768004BFBF0EE400AB0EE000A60EEA80A08F073
:10077800A7FADFED357A284620EE270A85ED020A2A
:1007880008F018FA504685ED060A01F019FC311DEB
:1007980004462B48C9B20AF1060A01F02DFB231EB4
:1007A800B5EE007A284618BF0123243507EE903AA3
:1007B800F8EEE77A67EE877A27EE800A05ED080AF1
:1007C80008F034F806F108011D48B0EE408AC9B2B5
:1007D80001F012FBF6EE007A60EE280AB0EE000A8D
:1007E80060EEA70A08F06CFAF0EE407A9FED177AEF
:1007F8003846B0EE480A443767EE877A47ED0F7AF5
:1008080007F004FEBBF1040F39EE009A9FD1019A5C
:1008180009F1020388ED009A08F10808914508EDEE
:10082800019A01D099468CE703B0BDEC048BBDE872
:10083800F08F7047000000009C0000248401002411
:100848006C01002408AC2A4100005C410000DC4235
:1008580060030024704700BF704700BF2DE9F041D6
:100868006E480E256E4C6F4E6F4F2DED028B8CB07F
:1008780000F01EF9694800F079F9684800F0B2F90B
:10088800F7EE007AB0EE408AC7EE808A00239FED2B
:10089800670A4FF07C582046636184ED038AC4EDF3
:1008A800048A84ED020AC4F8048008F083F9F0EEA3
:1008B800407A0223B0EE480A30464436C4ED067A40
:1008C80004F8243B07F084FD2946013D534846F8C7
:1008D800408CEDB200F066F903460BA93846ADF836
:1008E8002C3000F063FF0A2D07F10607CED10F2147
:1008F8004A4800F057F903464D48ADF800300099D2
:1009080000F05CFF1021454800F04CF903464948C7
:10091800ADF80430019900F051FF11213F4800F073
:1009280041F903464448ADF80830029900F046FF03
:1009380012213A4800F036F903464048ADF80C3029
:10094800039900F03BFF1321344800F02BF90346CC
:100958003B48ADF81030049900F030FF14212F48BF
:1009680000F020F903463748ADF81430059900F037
:1009780025FF1521294800F015F903463248ADF83E
:100988001830069900F01AFF1621244800F00AF9D9
:1009980003462E48ADF81C30079900F00FFF1721C9
:1009A8001E4800F0FFF803462948ADF820300899A2
:1009B80000F004FF1821194800F0F4F80346254810
:1009C800ADF82430099900F0F9FE1921134800F018
:1009D800E9F803462048ADF828300A9900F0EEFE01
:1009E8001C210E4800F0DEF803461C48ADF82C30F8
:1009F8000B9900F0E3FE04230C220D49184800F07F
:100A0800EBFE174801F0DCF90121044800F0F0F88A
:100A18001449024800F0DCF8FEE700BF2C0100246E
:100A28009C00002484010024600300240000C842C4
:100A380094020024A5020024B6020024C702002460
:100A4800D8020024E9020024FA0200240B0300243F
:100A58001C0300242D0300243E0300244F0300241C
:100A68006C0100242907000808B50B4A0B490C48FB
:100A780008F0ACF8084A0B49002008F0A7F8064A25
:100A88000949002008F0A2F8034A08490020BDE8F7
:100A9800084008F09BB800BF0000002421070008A8
:100AA8002C01002425070008610800085D080008DB
:100AB800F8B504464FF48073244E0321A38340F60F
:100AC8000337234B234AC4F8293003F10073224D1E
:100AD80003F54073214826600626C4F82D30204BC4
:100AE800626004F11C02A5600125E060002084F822
:100AF80027103021C4F831301A4BA261C4F83530C0
:100B0800E57784F8215084F8230084F82500616192
:100B1800C4F83970267400F0A9FD28463021124D1A
:100B280000F0A4FD4FF4A060022140F207124FF438
:100B3800877384F85360A564A4F84C0084F84F10B8
:100B4800A4F85020A4F85430F8BD00BF00070500F1
:100B580004020404010508050905070506050A0637
:100B680004030001060900020001000410B5044650
:100B780002F0C6F8204600F03FF8E01C01F040FA09
:100B880004F14F0001F0F0F904F1530001F0ECF921
:100B980004F1140000F07CFC01F092FFBDE8104065
:100BA80001F0C6BF1F2982B009D8084B03EB4102E8
:100BB80013F81130507843EA002002B0704701233F
:100BC8000C2043EA002002B0704700BF20980008BC
:100BD800002008B500F03AFD0020BDE8084000F00C
:100BE8005BBD00BF9FED010A704700BF008E3B4709
:100BF800002000F03BBD00BF2DE9F043444C8BB012
:100C0800A063037823B1002528460BB0BDE8F08324
:100C1800404A0A23002601276260082208932023FD
:100C280002A9201DC4E90267C4E9042340264FF441
:100C3800C07700224FF40063C4E90667C4E90823BB
:100C48004FF48056002702220723C4E90A67CDE93A
:100C580002230426032200230827CDE90623CDE931
:100C6800046707F029F8054600284CD14FF0010821
:100C78004FF010090126002702A94FF48052019075
:100C8800201DCDE902894FF002084FF01009CDE987
:100C9800046707F03BF8642002F01CF902A94FF43E
:100CA8008052201DCDE90467CDE9028904264FF062
:100CB80003084FF01009002707F028F802A94FF49D
:100CC8008052201DCDE90467CDE9028907F01EF89E
:100CD80040F232234FF0010C042601931027019BA8
:100CE80002A94FF48052201DCDE904C3CDE9026763
:100CF80007F00CF8201D40F6060107F027F82846F3
:100D08000BB0BDE8F083012528460BB0BDE8F083A1
:100D18008003002440410052694A2DE9F0431568D8
:100D28008FB015B10FB0BDE8F083664B01210C24DC
:100D3800002611600327D3F8D4204FF683784FF0AC
:100D4800020908A942F480525F48C3F8D420D3F8B6
:100D5800D42002F480520092009AD3F8E02042F0A6
:100D68001002C3F8E020D3F8E02002F0100201924C
:100D7800019AD3F8E02042F04002C3F8E020D3F80B
:100D8800E02002F040020292029AD3F8E02042F0FA
:100D98000802C3F8E020D3F8E02002F0080203922A
:100DA800039AD3F8E02042F48072C3F8E020D3F825
:100DB800E02002F480720492049AD3F8E02042F012
:100DC8008002C3F8E020D3F8E02002F08002059208
:100DD800059AD3F8E02042F02002C3F8E020D3F8C7
:100DE800E02002F020020692069AD3F8E02042F0B2
:100DF8000402C3F8E020D3F8E0300C9403F00403B5
:100E08000793079BCDE90A67CDE9088903F074FECB
:100E180048F23712022308A92C480C94DFF8C08046
:100E2800CDE90A67CDE9082303F066FE4CF20372A8
:100E3800022308A926480C94CDE90A67CDE90823BE
:100E480003F05AFE40F2FF62022308A921480C94DD
:100E5800CDE90A67CDE9082303F04EFE4FF60C7280
:100E6800022308A91C480C94CDE90A67CDE9082398
:100E780003F042FE4FF63F02022308A917480C94DC
:100E8800CDE90823CDE90A6703F036FED8F8380023
:100E9800013001F0A7FFD8F838300646581C01F099
:100EA800A9FF02220746032308A930460C94089795
:100EB8000B93CDE9092503F01FFE0FB0BDE8F083C1
:100EC8007803002400440258001002580018025801
:100ED800000C025800200258001C02580014025846
:100EE800800300242DE9F04FD64F8DB0DFF86CB3A6
:100EF800BB6807F11006D7F810580BF582640BF1A0
:100F0800100207F5826903EB800E069483000A92AB
:100F180004EB8508DBF8084006EB850C039302EB2D
:100F2800850197F81C3809EB850ACDF81C8004EB7D
:100F380080000B91CDE9086CCDE9049A002B00F0F4
:100F4800DA80012B40F0C480002D00F066810B464A
:100F580000240EF1040900F10408DFEDBB5A7146C4
:100F68000295019351F8343059F8345083F4000E47
:100F780050F8343085F4000583F4000AAEF5000318
:100F880006EE103A58F83430AAF5000A013483F412
:100F9800000EA5F5000306EE90AAB8EEC66A07EEA5
:100FA800103AAEF50003F8EEE66A07EE903AB8EEAE
:100FB800C77A019B26EE256AF8EEE77A66EEA56AFF
:100FC80027EE257AA6EC016A67EEA57AE2EC016ABB
:100FD800ACEC017AE3EC017A0193029BA342C1D104
:100FE8001D467B682A4604A908A89847039ADBF897
:100FF8000C00F96897F81C3810441144002B00F0D5
:10100800B180012B5DD1DDF810A00023DDF81C9024
:101018000E1DDDF81880041DDDF814E09FED8B7AB5
:10102800DFF83CC2DFED8A6A8A4F3BE0F4EEE67AED
:10103800F1EE10FAC0F22B813A46FEEC017A41F843
:101048003320F4EEC77AF1EE10FA3FD9F4EEE67ADF
:10105800F1EE10FAC0F222813A46F8EC017A46F82D
:101068003320F4EEC77AF1EE10FA2DD9F4EEE67AD1
:10107800F1EE10FAC0F219813A46F9EC017A40F81B
:101088003320F4EEC77AF1EE10FA14D9F4EEE67ACA
:10109800F1EE10FAC0F2C7803A4644F83320013323
:1010A8009D420ED9FAEC017AF4EEC77AF1EE10FA05
:1010B800BCD86246C1E7624644F8332001339D42FA
:1010C800F0D80DB0BDE8F08F6246D6E76246C4E7B7
:1010D8007B682A4604A908A89847039ADBF80C00FD
:1010E800F96897F81C3810441144CBB3012BE8D1A8
:1010F800002D88D1E5E7002D00F08F800EF104095E
:1011080000F10408DFED545A3EF9334006EE104A68
:1011180030F9334006EE904A39F93340B8EEC66AE2
:1011280007EE104A38F93340F8EEE66A013307EE65
:10113800904AB8EEC77A26EE256A9D42F8EEE77A1D
:1011480066EEA56A27EE257AA6EC016A67EEA57A0F
:10115800E2EC016AACEC017AE1EC017AD4D140E727
:10116800002DAED0DDF810A00023DDF81C900E1D78
:10117800DDF81880041DDDF814E09FED347ADFF8FF
:10118800E0C0DFED336A334F38E0F4EEE67AF1EE93
:1011980010FA4FDB3A46FEEC017A41F83320F4EEC0
:1011A800C77AF1EE10FA36D9F4EEE67AF1EE10FAD3
:1011B80058DB3A46F8EC017A46F83320F4EEC77A61
:1011C800F1EE10FA25D9F4EEE67AF1EE10FA50DBDA
:1011D8003A46F9EC017A40F83320F4EEC77AF1EE9A
:1011E80010FA14D9F4EEE67AF1EE10FA48DB3A4632
:1011F80044F8332001339D427FF663AFFAEC017A5D
:10120800F4EEC77AF1EE10FABFD86246C3E7624639
:10121800EEE76246DDE76246CCE77B682A4604A92A
:1012280008A898474DE7B0EE676ABEEEE46A16EE86
:10123800102A32E7B0EE676ABEEEE46A16EE102AAC
:10124800A9E700BFBC0300240000003404FF7FBFEF
:1012580004FF7F3F82FF7F0000000038E00B00247E
:101268007E0080FFB0EE676ABEEEE46A16EE102AD2
:10127800A0E7B0EE676ABEEEE46A16EE102AA8E7A9
:10128800B0EE676ABEEEE46A16EE102AB0E7B0EE7A
:10129800676ABEEEE46A16EE102ACEE6B0EE676A1A
:1012A800BEEEE46A16EE102AD7E6B0EE676ABEEE26
:1012B800E46A16EE102AE0E60B469200014618464C
:1012C80008F08CBAF8B5044601220F4658484FF486
:1012D800804103F009FE2368564A934263D02032C6
:1012E800934260D0544DD5F8184805F1100095F890
:1012F8001C28BE00AB686408012A03EB870100EBD9
:10130800840452D0A0420FD002469FED4C7A51F887
:10131800043B1BB207EE903AF8EEE77A67EE877A5D
:10132800E2EC017A9442F2D105F5826495F81E78D0
:10133800D5F8102821462B6802FB07F29847D5F804
:10134800182895F81C18EB6852080129334404EB57
:10135800820240D094421ED09FED397A3948DFEDA1
:101368003A6A9FED3A6A08E0F4EEE67AF1EE10FA8E
:1013780055DBA24243F8041B0DD0F4EC017A47F682
:10138800FE71F4EEC77AF1EE10FAEDD80146A242EA
:1013980043F8041BF1D100224FF480412448BDE8F2
:1013A800F84003F0A1BD2A4D9DE7A042BCD00246FB
:1013B8009FED287A51F8043B83F40003A3F500035A
:1013C80007EE903AF8EEE77A67EE877AE2EC017A70
:1013D8009442EFD1A8E79442DDD0043B9FED187A00
:1013E8001D4DDFED196A1D4808E0F4EEE67AF1EECE
:1013F80010FA0DDBA24243F8041FCCD0F4EC017ABA
:101408000146F4EEC77AF1EE10FAEED82946F1E774
:10141800B0EE676ABEEEE46A16EE101AEAE767EE07
:10142800867AFDEEE77A17EE901A09B2A1E700BFB7
:101438000018025804580140E00B0024000000384E
:1014480004FF7FBF0280FFFF04FF7F3F00FEFF46CF
:10145800BC030024000000347E0080FF82FF7F0070
:10146800014802F0E9BF00BFA81C0024014802F0AF
:10147800E3BF00BF201D0024014802F0DDBF00BF0C
:10148800981D0024014802F0D7BF00BF001B0024AC
:10149800D0E900232DE9F041802A614C614D86B0E6
:1014A80028BF8022C4F82008C5F8200818461E78EE
:1014B800DF7A93F80C80C4F81028C5F81028DA7879
:1014C800594984F81C281B792160296085F81C3843
:1014D80001F0A4F855484FF0020C554916F0FD0FDD
:1014E80000F5006ED4F81028D5F8103802FA0CF27E
:1014F80084F81EC803FA0CF385F81EC8C4F8182827
:10150800C5F81838C5E9020E01F50060C4E9020102
:1015180025D1032F84F81D7860D00F4600F2FF73A1
:1015280040F6FE72DB1B934262D94FF40062002141
:1015380008F062F938464FF40062002108F05CF9BF
:101548004FF4007200213B4808F056F94FF400723E
:101558000021394808F050F90023C4F81438731EE4
:10156800012B10D9002635484FF48042012300246E
:101578000670694632480394CDE9002303F0BCFAAB
:1015880006B0BDE8F081A86840F6FE72EF6800F288
:10159800FF7385F81D88DB1B934235D94FF4006231
:1015A800002108F029F938464FF40062002108F0BC
:1015B80023F94FF4007200212248A6F1020608F030
:1015C8001BF94FF4007200211F4808F015F9B6FA0C
:1015D80086F600237609C4F81438C4E740F60133C8
:1015E800ADF80030009806F013FED4E9020795E73D
:1015F800031F3A1F00F2FC70002143F8041F8342C6
:1016080042F8041FF9D19BE7031F3A1F00F2FC7050
:10161800002143F8041F984242F8041FF9D1C8E793
:10162800BC030024E00B0024C112000800100030A5
:1016380000000030CC030024CC070024041400244C
:1016480000180258F00B0024F00F0024044B00226D
:101658001A7010B9034B19607047034B1960704733
:1016680004140024BC030024E00B002468B9084BD0
:10167800802993F81E2828BF8021C3F8101801FB81
:1016880002F14900C3F818187047024BF0E700BF91
:10169800BC030024E00B002410B5C0B9234CD4F8D7
:1016A8002038B4F818285B685B7973B3E168204880
:1016B80006F062F9D4F82038B4F818285B68DB79AA
:1016C80073BBA1681B48BDE8104006F0E7B91A4C87
:1016D800D4F82038B4F818285B689B7983B1E1689E
:1016E800164806F049F9D4F82038B4F818285B6889
:1016F8001B7A7BB9A1681248BDE8104006F0CEB944
:10170800A1680E4806F0CAF9EDE7A168084806F096
:10171800C5F9CFE7E1680A48BDE8104006F02CB9E2
:10172800E1680448BDE8104006F026B9BC0300246F
:10173800101E0024101C0024E00B0024781B002439
:10174800681A0024084B1A78012A07D10368074A47
:10175800934206D02032934203D070470021FFF70E
:10176800B1BD0020FFF7BEBB04140024045801409B
:101778000B4B1A78012A07D103680A4A934209D009
:101788002032934206D07047074BD3F818184908FF
:10179800FFF798BD044BD3F818084008FFF7A2BB21
:1017A8000414002404580140BC03002409880022C2
:1017B8000180C0F8022000F0D7BB00BF82B0002330
:1017C8000322ADF80410BDF8041082700180037480
:1017D800C37002B0704700BF2DE9F04F0026DC4C03
:1017E800DC4F964642608FB0037007F1380284F8E8
:1017F800FCE08446A4F80961C4F8FD60C4F80161FE
:10180800C4F80561BE6103960696C7E90066C7E994
:101818000266C7E904664368CDE90466C4E94A720A
:10182800CDE90766CDE90966CDE90B66002B00F026
:101838006B810D460868A0464968EB68AA683E8037
:10184800A8E80F002B7C88F800302B7C84F8FD304A
:10185800DCF80430012B40F257812B467E8053F888
:10186800118F58689968DA68C4F81180C4F81500AF
:10187800C4F81910C4F81D201B7C84F8213095F891
:10188800213084F8FE30DCF80430022B40F23C8131
:101898002B46BE8053F8228F58689968DA68C4F8D6
:1018A8002280C4F82600C4F82A10C4F82E201B7C15
:1018B80084F8323095F8323084F8FF30DCF80430A0
:1018C800032B40F221812B46FE8053F8338F586852
:1018D8009968DA68C4F83380C4F83700C4F83B1054
:1018E800C4F83F201B7C84F8433095F8433084F8D3
:1018F8000031DCF80430042B40F20681A94604F1DB
:1019080044083E8159F8440FD9F80C30D9F804102E
:10191800D9F80820A8E80F0099F8103088F80030A6
:1019280095F8543084F80131DCF80430052B40F286
:10193800EB802B467E8153F8558F58689968DA6892
:10194800C4F85580C4F85900C4F85D10C4F8612083
:101958001B7C84F8653095F8653084F80231DCF832
:101968000430062B40F2D0802B46BE8153F8668F98
:1019780058689968DA68C4F86680C4F86A00C4F8D8
:101988006E10C4F872201B7C84F8763095F8763097
:1019980084F80331DCF80430072B40F2B5802B467D
:1019A800FE8153F8778F58689968DA68C4F87780A9
:1019B800C4F87B00C4F87F10C4F883201B7C84F82B
:1019C800873095F8873084F80431DCF80430082B28
:1019D80040F29A80A94604F188083E8259F8880F97
:1019E800D9F80C30D9F80410D9F80820A8E80F0065
:1019F80099F8103088F8003095F8983084F8053157
:101A0800DCF80430092B7FD92B4608F101064FF08A
:101A1800000A53F8998FA7F812A058689968DA68ED
:101A2800C4F899807060B160F2601B7C337495F8DB
:101A3800A93084F80631DCF804300A2B64D92B4627
:101A4800A7F814A053F8AA8F58689968DA68C4F8F8
:101A5800AA80C6F81500C6F81910C6F81D201B7C08
:101A680086F8213095F8BA3084F80731DCF804306C
:101A78000B2B49D92B46A7F816A053F8BB8F5868EB
:101A88009968DA68C4F8BB80C6F82600C6F82A1038
:101A9800C6F82E201B7C86F8323095F8CB3084F8B7
:101AA8000831DCF804300C2B2ED9A94606F133088E
:101AB800A7F818A059F8CC0FD9F80C30D9F80410A9
:101AC800D9F80820A8E80F0099F8103088F80030F5
:101AD80095F8DC3084F80931DCF804300D2B13D983
:101AE8002B46A7F81AA053F8DD7F58689968DA687A
:101AF800C4F8DD70B064F16432651B7C86F854303C
:101B080095F8ED3084F80A315FFA8EF1124D4FF4F2
:101B180080209CF8002000230826C4F848110121E1
:101B2800C4F830514FF48075C4F834010320C4F868
:101B3800383184F84C31A4F84451C4F85C01C4E944
:101B48005533C4E95833C4E94F16AAB106E000BFBB
:101B5800081400240020003000200240013A84F8D4
:101B68006811C4E95D31082A08D8DFE802F08388E3
:101B78008D92979CA1A7AE0084F86821804801F057
:101B8800EBFD034608B1FFBEFEE703A97C480393BB
:101B980001F03EFF0546002840F0EB8040F2FF735D
:101BA80002220420002184F80C52CDE9082394F87D
:101BB800FC30CDE90A01002B00F0D8800627DFF8B9
:101BC800F8B1DFF8F8A121E0022B00F0A980012B81
:101BD80040F0B28099F80130012B00F0C180002B51
:101BE8000CBF5346002306A965480693079701F0E2
:101BF800D7F9002840F0B280013594F8FC30EDB2F6
:101C0800AB4240F2B3805F4B53F825702EB206EB1F
:101C1800061604EB0609484600F0A6F905EB05137D
:101C280023441B7C042B00F39F80022B00F39A8033
:101C380052D06219002182F8EE10002B50D1A35D1A
:101C4800002BC1D199F80130062B00F08380072BB7
:101C58007ED0022B7AD0032B76D0002B7CD0012BA0
:101C680000F08980042B00F08880052B464B18BFB4
:101C78000023B8E703234022C4E95B327EE7072349
:101C88006022C4E95B3279E70F238022C4E95B3222
:101C980074E71F23A022C4E95B326FE73F23C02209
:101CA800C4E95B326AE77F23E022C4E95B3265E777
:101CB800FF234FF48072C4E95B325FE740F2FF1301
:101CC8004FF49072C4E95B3258E740F2FF334FF4A7
:101CD800A072C4E95B3251E70123621982F8EE3041
:101CE8006319012193F8EE2084F80C12002AA6D07B
:101CF80006F104081A460023009701962F46A044CF
:101D08001D4616464046013500F02EF996F8EE308D
:101D180008F10408AB42F5DC3D46DDE900768EE7C4
:101D280099F80130042B0DD0052B09D033B1012BC4
:101D3800164B18BF002356E7002354E7144B52E70D
:101D4800144B50E7144B4EE7144B4CE7144B4AE73F
:101D5800144B48E7144B46E7144B44E7FFBEFEE735
:101D68005B4640E70223B8E70323B6E70FB0BDE8B8
:101D7800F08FFFBEFEE70E4B35E70E4B33E700BF93
:101D880038150024609800080000B84F0008302E6D
:101D98000004002A000180211000C0100080F03EDD
:101DA8000040C03A8000501D0800900C00002143FC
:101DB800000052470000844B2000F0140002B025B8
:101DC80010B50B4C40F2FF724FF0011104F59870FA
:101DD80001F0CCFD94F80C3294F8FC2003B15200C9
:101DE800D4F828110348BDE8104001F02DBB00BF0E
:101DF8000814002438150024064B0D29D3F828317F
:101E080098BF03EB41031B8800EE103ABBEEC80AEB
:101E1800704700BF081400241E4B02689A4200D085
:101E280070471D4B4FF48061D3F8D82070B542F04D
:101E380020021A4C05460920C4F8A4114FF4006189
:101E4800C4F8980182B0C3F8D82004F5CA76D3F84C
:101E5800D8204FF40053124802F02002C4F8A81109
:101E6800C4F8AC314FF480710023C4F89401019296
:101E78003046019AC4F8B011C4E96733C4E96D3338
:101E880001F0E8FF08B1FFBEFEE7EE64C4F8CC51EC
:101E980002B070BD0020024000440258081400241B
:101EA80040000240014802F0C7BA00BF9C15002458
:101EB80002682DE9F84F2A4B9A4201D0BDE8F88F05
:101EC800DFF8A09099F8FC20002AF7D0002409F147
:101ED800040609F5867509F1FC07A04616E05FFAC5
:101EE80083FA03F0010117F80FBC304600F076F8CA
:101EF800301DBBF1010FCAF3400125D899F8FC2029
:101F0800013411360235A3B29A42D7D917F8011F06
:101F1800C4EBC40C0029F3D0D9F828210021D9F842
:101F28002C3128788A4632F814E003EB4C1302016E
:101F380023F802E02B8801339BB22B803A789A422F
:101F4800CDD8A5F80080CEE700F048F8BBF1020F25
:101F580006F10800CAF38001D0D000F03FF8CDE7C1
:101F6800002002400814002410B5837886B0044687
:101F7800022B22D0032B1ED0012B1CD0002302934E
:101F8800E378012B15D0022B13D0002303930023F1
:101F98002046049300F026FF034620461C4600F026
:101FA80029FF01A903462046019302F0A5FD06B0CA
:101FB80010BD0393EBE70293E2E711230293DFE7F7
:101FC80038B5054600F00EFF0446284600F012FF1B
:101FD80001462046BDE8384002F080BF70B506468D
:101FE8000D4600F0FFFE0446304600F003FF2A1EAF
:101FF8000146204618BF0122BDE8704002F074BFB8
:102008002DE9F04FA44C0346ABB0204623655F781A
:1020180093F8008003F0F0F8E8B9012F4FF00105BC
:102028009E49034614BF4FF480124FF40002E0604B
:10203800A560C4E9001592FAA2F2B2FA82F24FF44E
:102048008076E0612046013A2362C4E9042603F061
:1020580067F8034618B101202BB0BDE8F08F4FF0A8
:10206800660C41F2883220460EA9149617931393F2
:102078001B93CDF838C0CDE91533CDE9193303F0FA
:10208800D9F80028E7D1992341F288320EA92046D1
:102098000E9303F0CFF80028DDD14FF0000B4FF07E
:1020A800010C4FF0050A4FF08079249008AA21907E
:1020B8001CA9299041F28833CDF870A0CDF89490EE
:1020C800CDE908BC4FF0100B4FF0010CCDE90ABC6C
:1020D8004FF0000B4FF4800CCDE92260CDE92700CA
:1020E8002046CDE90CBC03F011FA0028B3D1ADF8B5
:1020F80008001390CDE91460CDE91609CDE9185010
:10210800CDE91A00002F00F0CB80F023ADF808309D
:10211800C02341F288320EA95F480E9303F08AF873
:10212800002898D141F288325B4802A903F0ECF804
:10213800044600288FD1002601274FF480754FF000
:1021480080794FF0000A4FF4800B219441F28833D4
:10215800299408AA1CA950482295CDF89490CDE955
:102168000867CDE9234410260127CDE92744052433
:10217800CDE90A671C94CDE90CAB03F0C7F9002838
:102188007FF469AF012406238DF8070041F28832F5
:1021980013901CA91B90219029900E941C93CDE9B3
:1021A8001450CDE91609CDE91900CDE92250CDE941
:1021B8002400CDE92700384803F03CF800287FF4D4
:1021C8004AAF10260127052041F2883308AA1CA926
:1021D8001C903148CDF89490CDE90A670226022771
:1021E800CDE90CABCDE9086703F090F900287FF43E
:1021F80032AF41F288320EA9274803F01BF80028B5
:102208007FF429AF402341F288320DF107012248BB
:102218008DF8073003F078F800287FF41CAF1026FB
:102228000127052002AA41F288330EA90E901A4808
:10223800CDF85C90CDE9046740264027CDE906AB90
:10224800CDE9026703F062F9064600287FF403AF80
:102258002295002521960520299601271C9008AA79
:1022680041F288331CA90C48CDF89490CDE9236637
:10227800CDE927660126CDE908561026CDE90CAB35
:10228800CDE90A6703F042F900287FF4E4AEB8F11B
:10229800000F50D00020DFE618160024005000522E
:1022A800612341F288320EA920460E9302F0C2FF44
:1022B80000287FF4D0AE41F2883202A9204603F00C
:1022C800A1F800287FF4C7AEBDF808300625259090
:1022D80041F2883223F07803219029901CA943F019
:1022E800400322961C95ADF80830CDE92300CDE9CE
:1022F8002700204602F09EFF00287FF4ACAE10268F
:10230800012720460225022441F2883308AA1CA985
:10231800CDF870A0CDF89490CDE90A6700264FF467
:102328008007CDE90845CDE90C6703F0EFF80028F0
:102338003FF4EEAE8FE6EB24A0264FF400570625B7
:102348001C9400244FF0805000234FF480784FF401
:10235800406929900EAA1CA90C48CDE91E67CDE951
:1023680020454FF440464FF0407700240025CDE942
:102378002733CDE92289CDE92467CDE90E4503F05D
:1023880039F9003818BF012066E600BF1816002486
:102398003E4B02682DE9F0479A428CB04FF0000599
:1023A800CDE90755CDE909550B9502D00CB0BDE82C
:1023B800F087374B0226374905AFD3F8D420B1460A
:1023C800DFF8D4A04FF0030842F48042C3F8D420C9
:1023D800D3F8D42002F480420092009AD3F8E02087
:1023E80042F04002C3F8E020D3F8E02002F04002B7
:1023F8000192019AD3F8E02042F02002C3F8E020CD
:10240800D3F8E02002F020020292029AD3F8E020EA
:1024180042F01002C3F8E020D3F8E02002F01002E6
:102428000392039AD3F8E0203243C3F8E020D3F8AC
:10243800E03033400493049B03C90590ADF81810AD
:10244800DAF8504034440236204600F0CBFC03460C
:1024580020461C4600F0CEFC17F8013B024607A9AF
:1024680020460B93CDE90729CDE9095802F044FB32
:102478000E2EE5D100225C20114601F03FFB5C20C6
:1024880001F076FB0CB0BDE8F08700BF00500052A9
:1024980000440258A098000818160024124B02683D
:1024A8009A4200D07047114AD2F8D43070B523F45C
:1024B800804302250E4EC2F8D430346D2C440235C8
:1024C800204600F08FFC034620461C4600F092FC94
:1024D8000146204602F034FC0E2DEED15C20BDE80A
:1024E800704001F053BB00BF005000520044025836
:1024F80018160024014803F005B900BF1816002477
:10250800184BF0B5197983B0012929D0002211465A
:102518000024154802230125144F4BF680360192FA
:10252800009107600662C461114EC460C0E90135BC
:10253800C0E90544C0E90B4405F05CF90D480223E5
:102548004461C461C46044630660DDE90012C0E907
:102558000154C0E90B4403B0BDE8F04005F04AB9A6
:102568000222D5E774160024781B0024045C01407D
:10257800245C0140681A002470B5254D82B0E978C2
:10258800012936D000226B7A1146002B35D0012B59
:102598003AD16B791F48002B0CBF032302234360F9
:1025A80000244BF68036022306628460C461C4604E
:1025B800C0E90544C0E90B441648CDE9001205F00E
:1025C80019F9EB7914480125A3424FF0020344613D
:1025D8000CBF03260226C4614660C460446385605C
:1025E800DDE90012C0E90B4402B0BDE8704005F017
:1025F80001B96B7A0222002BC9D16B790548B3FA6D
:1026080083F35B094360CBE7024801234360C7E7D4
:1026180074160024101E0024101C0024F8B5194F4D
:10262800044600F1200C3E462068103454F80C1C77
:10263800354654F8082C103654F8043C64450FC548
:10264800F2D12378104A3370104C11493B78114D60
:102658001460012B104804F58064104A0D6010497D
:102668000460116005D0022B01D033B1F8BDFFF72B
:1026780083FFBDE8F840FFF743BFBDE8F840FFF728
:102688007BBF00BF74160024101E002404580140AC
:10269800101C002424580140781B0024681A0024C8
:1026A800245C0140B14BD3F8E02042F010022DE940
:1026B800F04FC3F8E02093B0D3F8E0200446AC4DC7
:1026C80002F010020092009AD3F8E02042F00202D1
:1026D800C3F8E020D3F8E02002F002020192019A48
:1026E800D3F8E02042F04002C3F8E020D3F8E0201D
:1026F80002F040020292029AD3F8E02042F0080267
:10270800C3F8E020D3F8E02002F008020392039A0D
:10271800D3F8E02042F00402C3F8E020D3F8E02028
:1027280002F004020492049AD3F8E02042F0010275
:10273800C3F8E020D3F8E02002F001020592059AE0
:10274800D3F8E02042F48072C3F8E020D3F8E01018
:10275800026801F48071AA4206910699D3F8E01044
:1027680041F08001C3F8E010D3F8E01001F08001D7
:1027780007910799D3F8E01041F02001C3F8E01061
:10278800D3F8E01001F02001089108990CD0794B9A
:102798009A4200F00781784B9A423AD0774B9A4296
:1027A80075D013B0BDE8F08F754A1168002900F0A4
:1027B8006E810025DFF8E89101310DF1340809EB4D
:1027C800450A2F465FFA85FB1160504615B96D4BD7
:1027D800597AA9B900F006FB0646504600F00AFBF4
:1027E80002230146062230461192CDE90D134146D7
:1027F800CDE90F7702F080F9BBF1040F00F00E81EC
:10280800013509EB450A5FFA85FB5046002DDED0FD
:10281800E0E75D4B1A6862B95449D1F8F00040F41A
:102828000000C1F8F000D1F8F01001F400010B919C
:102838000B9961680132554D4FF4804021F0020137
:102848001A60534A4FF4805301294FF059072A6000
:102858004FF480710CBF002240226B614FF48066F8
:102868000023AA604FF40032A8612846EB606B622F
:102878006F602E61C5E9071201F0ECFA22683F4B40
:10288800C4F884509A42AC63C4F8805089D13E4B56
:102898001A68002A00F0ED8000253E4E01320DF145
:1028A8003408A9464FF0020A30465FFA85FB1A60E1
:1028B800CDB9344B9B7A7BB900F094FA0746304681
:1028C80000F098FA0A230D901095CDE90EA5384628
:1028D8004146119302F010F9013502365FFA85FB83
:1028E8003046002DE5D000F07DFA0746304600F06E
:1028F80081FABBF1020F02464FF00A0341463846FF
:10290800CDE90D2ACDE90F9900F0B180119302F0BD
:10291800F3F8BBF1040FDFD163685A221E4D4FF460
:10292800806623F002031D496A604FF48052012B30
:102938004FF4804029604FF480710CBF002340237E
:10294800A8612846AB600023C5E904624FF4003251
:10295800EB606B62C5E9071201F07CFAC4F8845099
:10296800AC63C4F8805013B0BDE8F08F004402583F
:102978000458014024580140045C0140245C014093
:102988006C1600247416002470160024981D002468
:10299800580002408B160024001B002470000240DF
:1029A80081160024404A136863B94049D1F8F00001
:1029B80040F48000C1F8F000D1F8F01001F4800173
:1029C8000A910A9961680133394D4FF4804021F02A
:1029D80002011360374A4FF4805301294FF058071A
:1029E8002A604FF480710CBF002240226B614FF4C3
:1029F80080660023AA604FF40032A86128466F6001
:102A08002E61EB606B62C5E9071201F023FA2268B8
:102A1800C4F88450AC63C4F88050BCE6636857229D
:102A2800254D4FF4806623F0020324496A604FF471
:102A38008052012B4FF4804029604FF480710CBF05
:102A480000234023A8612846AB600023C5E904623F
:102A58004FF40032EB606B62C5E9071201F0FAF936
:102A68002268C4F88450AC63C4F880508FE6082309
:102A78002DE70E49D1F8F00040F40000C1F8F0004D
:102A8800D1F8F01001F400010C910C9904E7D3F887
:102A9800F00040F48000C3F8F000D3F8F03003F4FD
:102AA80080030993099B84E66C16002400440258AD
:102AB800201D002428000240A81C00241000024009
:102AC800F0B5194BC827194E02224FF0804403F184
:102AD8000C050021002089B09A60DC608022002467
:102AE8005A620194C3E900674FF0FF360027C3E933
:102AF8000401C3E906672846CDE90444CDE9064444
:102B0800CDE9024405F03AF94FF4805304A9284668
:102B1800049305F0E7F901A928460194039405F008
:102B28009FFA09B0F0BD00BF98160024400D0300BD
:102B3800014805F0BBB900BFA41600240368B3F12F
:102B4800804F00D07047084B82B0D3F8E82042F09D
:102B58000102C3F8E820D3F8E83003F00103019339
:102B6800019B02B0704700BF0044025800000000FB
:102B78002DE9F04FCFB04C2200210AA806F03CFE08
:102B88002022002102A806F037FEBC2200211EA840
:102B980006F032FE022002F0ABF9514A0021514BF7
:102BA80001911846D16A21F00101D162D26A02F07E
:102BB800010201929A6942F440429A619B6903F4C6
:102BC80040430193019B83699B04FCD5464A022438
:102BD80021204FF48031936A0126042523F0030352
:102BE80023439362C8230822109616930023179450
:102BF800199415951C93CDE90A0105210AA8CDE978
:102C080013441891CDE91A2302F084FE00B1FEE7BF
:102C18003F2603270022082302A82146CDE90267A0
:102C2800CDE90423402640234FF480624027CDE9B4
:102C38000823CDE9066703F0A9F9034600B1FEE7CA
:102C480080220A260227002534924FF4807233949A
:102C58008024439200224FF054084FF008091EA820
:102C6800CDE93B334FF4805335934FF4803346938B
:102C78000623CDE92267CDE9244540F227164027EF
:102C880004242025CDE926234FF480620023CDE9D2
:102C98002867CDE92A45CDE92C230FF23C0BDBE967
:102CA80000AB002602270024002500224FF4401321
:102CB800CDE91EABCDE92089CDE92E67CDE93045B8
:102CC800CDE93E2303F08AFB00B1FEE702F036F9B6
:102CD8004FB0BDE8F08F00BF09130F0304000000D8
:102CE80000040058004802580044025808B500F093
:102CF800DFF8BDE8084000F0C1BF00BFFFBE704765
:102D080070B584B0012500F0A5F80024FFF730FF66
:102D180000F068FF4FF040512F4A4FF48073684627
:102D28000191ADF80050CDE9022300F07DFF40F29B
:102D3800011119224FF040436846ADF80E108DF886
:102D4800082001938DF801508DF80D408DF80A4048
:102D580000F06AFF042000F055FF05F0CFFA05F0F7
:102D680071FABFF34F8FBFF36F8F1C4BC3F85042FC
:102D7800BFF34F8FBFF36F8F5A6942F400325A6125
:102D8800BFF34F8FBFF36F8FC3F88440BFF34F8FEC
:102D9800D3F8801043F6E074C1F34E32C1F3C90191
:102DA800520102EA0405084645EA80760138C3F86C
:102DB8006062461CF8D1203A12F1200FF1D1BFF31E
:102DC8004F8F5A6942F480325A61BFF34F8FBFF375
:102DD8006F8F04B070BD00BF0D00010300ED00E06F
:102DE80000F078B8024B027853F82200704700BF11
:102DF800C8980008024B427833F81200704700BFA9
:102E0800A8980008704700BF0F4B1B780BB901202A
:102E1800704710B504464FF47A700C4AB0FBF3F3D0
:102E28001068B0FBF3F000F0C5FE0F2C00D808B115
:102E3800012010BD002221464FF0FF3000F05EFE59
:102E4800034B00201C6010BD0C000024040000246B
:102E58001000002470B5124C032000F03BFE114E08
:102E680002F0F4FFA26910490346C2F303220F20BF
:102E78000E4D8A5C02F01F02D3403360A269024003
:102E88008A5C02F01F02D3402B60FFF7BDFF10B130
:102E98000124204670BD0446FFF7B4FF204670BDEC
:102EA8000044025804000024109800080800002478
:102EB800034A044B11681B780B441360704700BF2A
:102EC800E41600240C000024014B1868704700BF6A
:102ED800E416002438B50446FFF7F6FF0546631CE0
:102EE80002D0044B1B781C44FFF7EEFF431BA342A0
:102EF800FAD338BD0C000024014B1868000C704749
:102F08000010005C704700BF806B08B5FEF7D0FF6B
:102F180008BD00BF704700BF836B5A6D12F0500F99
:102F28005A6D10B51DD1196842F400725A650A68C5
:102F380012F0080FCA681BD012F4406F0DD1CA688E
:102F480094040AD45A6D22F480725A655A6DD104D9
:102F580003D45A6D42F001025A651846FFF7D2FFB2
:102F680010BDD2060AD4DB6CBDE81040DB6C1847F4
:102F78009007E7D01846FFF7C5FFF1E71846FFF7B7
:102F8800C9FF10BD806B08B5436D43F0400343652E
:102F9800836D43F004038365FFF7BCFF08BD00BFE2
:102FA800F0B5002283B0019290F85020012A00F079
:102FB8001B81034601201A6883F85000946866074D
:102FC80000F189800C68C4F31305002D40F08E8051
:102FD800C4F3846C00FA0CF04C681F26D569A70965
:102FE8003440284302F1300507F00C07A640D061B1
:102FF8000CFA04F4785920EA0600204378519068C6
:10300800450771D4956815F0080548D10C6802F198
:10301800140607208F684FEAD45CC4F304540CF0FC
:10302800040C00FA04FE07FA04F4C64F5CF8060024
:1030380020EA0E0020434CF80600386800F0704083
:10304800B0F1805F00F0C880D068D66810F0100F2B
:10305800486940F0E980C6F38206760000FA06F671
:103068000F69042F00F0C38002F16004086854F867
:1030780027C000F0F8400CF0004C40EA0C00304348
:1030880044F827000E694F7E54F82600012F20F0DF
:10309800004008BF4FF00045054344F826509068AB
:1030A800C40716D4CE68086806F01807A64CD2F8EC
:1030B800C050FC40C0F31307DFF8B8C2044025EA4B
:1030C8000705664544EA0504C2F8C04046D0002812
:1030D80016DB002003E05A6D42F020025A650022F8
:1030E80083F8502003B0F0BD9068D8E794FAA4F5AF
:1030F800B5FA85F5C4F3846C05F01F04A0406BE7AE
:1031080092498A4200F0B68001F580718A4200F047
:10311800B1808F4E8F4DA968B46801F0E076E44322
:1031280004F00104002C00F0B3808B4CA04200F0A6
:10313800E6808A4CA04200F01F81894CA042C8D189
:103148004902C6D482498A42C3D1AA68002022F023
:10315800E072324342F48002AA60C0E7002F69D0CF
:1031680090FAA0F4B4FA84F4013404F01F04092C92
:1031780000F2A38090FAA0F4B4FA84F490FAA0F5CF
:103188000126B5FA85F501343544A40605F01F0576
:1031980004F0F84406FA05F52C4390FAA0F0B0FACA
:1031A80080F0304400F01F0000EB40000005204391
:1031B800C70D02F11405C0F304504FF0070C07F0D7
:1031C80004078E680CFA00FC7C59864024EA0C003F
:1031D8003043785108687AE7D6684869C6F38206AA
:1031E800760000FA06F63BE7022003B0F0BD106E49
:1031F8000D6800F0F840AC06B0EB856F30D0506E2B
:1032080000F0F840844226D0906E00F0F8408442E6
:103218002BD0D06E00F0F84084427FF440AFD06EDF
:1032280020F00040D0663AE7760806F0080600FA73
:1032380006F615E7800E441C04F01F06092E2DD84B
:10324800A406012506EB460004F0F84405FA06F644
:1032580000053443ABE7506E20F000405066D3E7DA
:10326800106E20F000401066C9E7906E20F0004014
:103278009066CEE73B49354E3B4C0D468968B768AA
:10328800A46801F0E0763C43E44304F0010449E714
:103298005A6D012042F020025A6520E706EB4600ED
:1032A8000127A5061E3807FA06F605F0F8450005B9
:1032B800354340F0007028437AE790FAA0F5B5FA54
:1032C80085F590FAA0F40126B4FA84F40135344463
:1032D800AD0604F01F0405F0F84506FA04F425438A
:1032E80090FAA0F4B4FA84F4344404F01F0404EB14
:1032F8004404A4F11E00000540F00070DBE708025A
:103308003FF5E7AE12498A427FF4E3AE174AA9684F
:103318001268174821F0E07192093143A0FB0202BC
:1033280041F400019209A96052000192019A002A11
:103338003FF4CFAE019A013A0192019A002AF9D1DD
:10334800C7E600BF0010005CFFFF0F00002002402E
:103358000060025800630258000084CB000052C786
:103368000000B8CF002302400021024004000024DE
:10337800632D3E050000FF4711F080707FF4A9AE71
:1033880005498A427FF4A5AEAA6822F0E07232436A
:1033980042F08072AA60A2E60060025803689A6848
:1033A800D20701D5002070479968214A114270B5AB
:1033B80004462AD199681F4A0A4042F001029A60DD
:1033C800FFF782FD23681C4A0546934226D002F582
:1033D8008072934222D0194A9268164E0AE09A687F
:1033E800324042F001029A60FFF76EFD401B02284E
:1033F8000BD823681A68D20717D49A68D107EED574
:10340800FFF762FD401B0228F3D9636D012043F0EA
:1034180010036365A36D0343A36570BD084A9268F2
:10342800D006DAD0074A9342D7D1002070BD00BF3A
:103438003F000080C0FFFF7F002002400063025869
:1034480000230240002102402DE9F0413B4D044693
:1034580000680F461646A84219D0394B984216D034
:10346800384DAB688068420716D494F85020012A7A
:1034780012D003F01F080123B8F1090F84F8503067
:103488000DD90023012084F85030BDE8F0812E4D7D
:10349800AB6880684207E8D50220BDE8F08140F2B9
:1034A800212323FA08F3DB4313F00105E9D1204671
:1034B800FFF774FF00283AD1626D244B256813404A
:1034C80043F480736365B8F1000F02D01C4B9D4232
:1034D80003D0636D23F480136365636D13F4805325
:1034E80029D0A36D23F00603A365E06C4FF0000C10
:1034F800DFF868E033463A461C21154F154EC0F8F0
:103508003CE00764C664296005F1400184F850C0B6
:103518006E6846F010066E6000F066FE22680E4B7C
:1035280091680B4043F004039360BDE8F08184F890
:103538005050BDE8F081A365D7E700BF00200240E6
:10354800002102400063025800230240FEF0FFFF02
:10355800112F00088D2F0008C0FFFF7F212F0008C2
:1035680038B503689A68910702D59B68002038BD72
:103578009A68D20723D59A68044602F00D02012AF8
:1035880008D0636D012043F010036365A36D034306
:10359800A36538BD986803210A4A024042F0020236
:1035A8009A601960FFF790FC054604E0FFF78CFC71
:1035B800401B0228E5D823689B68DB07F6D4002067
:1035C80038BD00BFC0FFFF7F38B55A4A04460368BC
:1035D800934249D002F58072934245D0564B9B687E
:1035E80013F4403F14BF01230023EBB102F0E8FDC0
:1035F80063680546B3F5003F00F08B80B3F5403FA4
:1036080073D0B3F5803F00F08480FFF775FC41F27A
:10361800030398421FD8494B9D4260D9226893689A
:1036280043F48073936038BD4FF4002003F04EFEDE
:1036380063680546B3F5101F75D01DD9B3F5201F73
:103648005BD0B3F5301FE0D1FFF756FC41F203031E
:10365800984244D92D0A3A4B9D422ED82268936845
:1036680023F44073936038BD364B9B6813F4403F96
:1036780014BF01230023B8E7B3F5E01F3FD004D9F6
:10368800B3F5001FC1D14509BFE7B3F5801F06D0C8
:103698000AD9B3F5A01F02D0B3F5C01FB5D19B0C52
:1036A8005B00B5FBF3F5B0E7B3F5002FF7D023F4D3
:1036B8000022B2F5802FF2D0A7E7234B234A2B44F0
:1036C80093421ED9224B234A2B4493422268936883
:1036D8002BD823F4407343F40073936038BD2268F9
:1036E800936823F48073936038BD8508FFF704FC62
:1036F80041F203039842AED88DE7C50985E705096D
:1037080083E72268936823F4407343F480739360DB
:1037180038BD1B0CB5FBF3F5FFF7EEFB41F20303D5
:10372800984298D877E785096FE743F44073936028
:1037380038BD00BF0020024000630258002D31014F
:10374800105E5F0000230240EFA1A0FF0F5E5F0044
:10375800DF4341FF1FBCBE0070B5002382B0019358
:10376800002800F0CF80456D0446002D00F0B98098
:10377800226893689D0003D59168704B0B40936055
:103788009368D80015D46E4B90681B686D4D9B09E3
:103798006D49A5FB035301409B0941F0805191609D
:1037A8000193019B2BB1019B013B0193019B002BD2
:1037B800F9D19368D90024D4636D012543F010032F
:1037C8006365A36D2B43A365936813F0040F636DC2
:1037D8001DD1DB061BD4636D23F4817343F0020310
:1037E80063659368DE0728D4584B9A4217D003F5CF
:1037F80080739A4213D0564B9B68D9071DD4554AFB
:1038080015E09368002513F0040F636DE1D0636D34
:10381800012543F010032846636502B070BD4B4A8A
:103828004D4B92689B681343D80706D44B4A93685C
:10383800616823F47C130B439360FFF75DFB41F24F
:103848000303A1689842237F51D8667D1A04206B30
:1038580042EA463202430A43012B03D1236A013B61
:1038680042EA4342636A23B103F47873A16A0B43C3
:103878001A4323683A49D86801400A43DA609A68CB
:1038880012F0040F9A681CD112071AD4D968354A65
:10389800207D0A40E16A42EA80320A43DA6094F8FD
:1038A8003820012A3AD01A6922F001021A611A69ED
:1038B8002046616B22F070420A431A61FFF784FECA
:1038C8002368E268012A21D01A6B22F00F021A63DA
:1038D800636D284623F0030343F00103636502B0D8
:1038E80070BDFEF799FAA56584F8505040E7102995
:1038F800ABD1607D1A04216B42EA40320A4342F0A0
:103908001C02A9E70125284602B070BD196BA269FF
:1039180021F00F01013A0A431A63D9E71869124ED8
:10392800D4E910210640A06C0A43E16B32430243FC
:1039380042EA014242F001021A61B8E7C0FFFF5FA4
:1039480004000024632D3E05C0FFFF6F00200240E5
:103958000060025800630258002102400023024020
:1039680003C0F0FFFCBFFFFF1EF800FCF0B50D46DA
:1039780090F8501083B00026012901963ED001230B
:103988000446174680F85030FFF7EAFD636DE0B94A
:103998001C4E07F08042216805F480351E401A4B02
:1039A8001A4F46F0020666658E68334013432B4370
:1039B80043F000438B608B68002B0EDB636D23F0B4
:1039C800030343F00103636502E043F010036365FA
:1039D800002384F8503003B0F0BD019B01330193FC
:1039E800019BBB42E7D9636D0022012023F012033B
:1039F80084F8502043F010036365ECE7022003B01D
:103A0800F0BD00BFFDEEFFFFC0FFFE3FFF955A551A
:103A1800F0B490F850200E68012A49D00346294A8C
:103A280001201C6883F85000944208D05A6D002188
:103A380042F0200283F850105A65F0BC7047224DBE
:103A4800AA6852070AD5A2685A6D012042F02002DE
:103A58005A65002283F85020F0BC7047A06810F027
:103A68000400F1D1C6B1DFF868C04F68DCF808205F
:103A780022F440423A43CCF80820A468AA682243BA
:103A8800D40713D48A68DCF808401049164321404B
:103A98000E43CCF80860DCE70D498A6822F44042FE
:103AA8008A60A068AA680243D00704D50020D0E73E
:103AB8000220F0BC70478C683046044A22408A6075
:103AC800C7E700BF0020024000210240E0F0FFFFEE
:103AD8000023024007490002074BCA6800F4E0606F
:103AE80010B44FF6FF0422405DF8044B1043034323
:103AF800CB60704700ED00E00000FA05194BDB6869
:103B0800C3F3022330B4C3F107051C1D042D28BFDD
:103B18000425062C19D9033B4FF0FF349C4022EAB8
:103B280004024FF0FF34002804FA05F421EA0401E6
:103B380001FA03F141EA02010ADB09010A4BC9B2A1
:103B4800034483F8001330BC704700221346E8E7AB
:103B580000F00F000901054BC9B20344197630BCC7
:103B6800704700BF00ED00E000E100E0FCEC00E081
:103B7800002807DB00F01F0101234009024A8B409F
:103B880042F82030704700BF00E100E000280DDB5C
:103B98004309012200F01F000549203302FA00F012
:103BA80041F82300BFF34F8FBFF36F8F704700BFFB
:103BB80000E100E00138B0F1807F0DD2074B002210
:103BC800072130B4F025064C5860104684F823507D
:103BD8009A60196030BC70470120704710E000E01F
:103BE80000ED00E0BFF35F8F044A00200449536AE8
:103BF80023F4803353624860704700BF00ED00E053
:103C080090ED00E0064A40F00100064B5860536A08
:103C180043F480335362BFF34F8FBFF36F8F704706
:103C280000ED00E090ED00E0124A437893600178DF
:103C3800E9B1436870B4D360C37A047B1B06857A04
:103C4800867B43EA0473447B0B43017A43EAC5430A
:103C5800C57B43EA8443447A43EA464343EA05433F
:103C680043EA042343EA410370BC13617047D160FF
:103C78001161704790ED00E0704700BF08B5FFF78D
:103C8800FBFF08BD0268354B354930B4354C364D1D
:103C9800A24218BF9A4204F148040CBF0123002332
:103CA8008A4208BF43F001034831AA4208BF43F0E3
:103CB80001034835A24208BF43F0010348348A4251
:103CC80008BF43F0010301F56271AA4208BF43F03F
:103CD800010305F56275A24208BF43F0010304F52C
:103CE80062748A4208BF43F001034831AA4208BF00
:103CF80043F001034835A24208BF43F001034834AA
:103D08008A4208BF43F001034831AA4208BF43F082
:103D18000103A24208BF43F001038A4208BF43F0EF
:103D2800010313B9114B9A4213D1D3B21049114C64
:103D3800103BA1FB03515F2B0F4BC1F3021103EAA8
:103D48000203615C88BF0433C1658365184630BCD3
:103D5800704722F0FF038365F8E700BF10000240B8
:103D6800400002402800024058000240B8040240C7
:103D7800ABAAAAAAF898000800FCFFFF0368294A22
:103D8800294930B4294D2A4CAB4218BF934205F15A
:103D98003C050CBF01220022A34208BF42F00102E9
:103DA8003C348B4208BF42F001023C31AB4208BFB1
:103DB80042F00102A34208BF42F001028B4208BF51
:103DC80042F0010212B91B4A934213D1DBB21A4DD9
:103DD8001A4A0121083B1A4CA5FB0353446602EB1F
:103DE8001312C3F30413920001FA03F30266836605
:103DF80030BC7047DAB21349134C1944103AA82959
:103E0800A4FB02234FEA131300D808330F4A03F028
:103E18001F0501210E4C1A44A94044669200816690
:103E28000266E5E708540258445402581C540258E4
:103E38003054025894540258CDCCCCCC009600167D
:103E480080580258F0FBFDBFABAAAAAA0082001056
:103E580080080240F8B50446FFF736F8002C00F059
:103E6800DC8023680546974A934249D0183293422A
:103E780046D0303294489549834218BF934200F1A6
:103E880048000CBF012200228B4208BF42F0010209
:103E98003031834208BF42F0010230308B4208BF04
:103EA80042F0010201F55C71834208BF42F0010251
:103EB80000F55C708B4208BF42F00102303183424A
:103EC80008BF42F0010230308B4208BF42F00102C5
:103ED8003031834208BF42F0010230308B4208BFC4
:103EE80042F001023031834208BF42F001028B42A6
:103EF80008BF42F001021AB9754A934240F0FC80AB
:103F08000222002184F8352084F834101A6822F03F
:103F180001021A6005E0FEF7D7FF431B052B57D8AF
:103F280023681A68D107F6D4D4E9022120690A4324
:103F38001F68D4E9051602430A436649D4E9070510
:103F4800324339400243606A2A43042841EA0201A5
:103F580045D019605A6922F007021043586120467B
:103F6800FFF790FEE26D3F2302F01F02934083604B
:103F78002046FFF703FFA368802B18D06368256EDF
:103F8800DAB2013BD4E91910072B2A60486015D82A
:103F9800501E072843D9626FD4E91B3100201860EE
:103FA800002001234A60606584F83530F8BD00239D
:103FB800A16ED4E9180263600360516000230020F9
:103FC800C4E91B3363670123606584F83530F8BDA5
:103FD800202203230120626584F83530F8BDD4E936
:103FE8000B50A26A284301431960586920F0070062
:103FF800104340F00400002DB0D0002E45D1012A16
:104008005AD032F00202A9D1EA01A7D501234022F1
:104018001846626584F83530F8BD0120F8BD21687E
:104028002D4B2E4E2E4DB14218BF994206F128064F
:104038000CBF01230023A94208BF43F00103283520
:10404800B14208BF43F001032836A94208BF43F034
:1040580001032835B14208BF43F00103A94208BF54
:1040680043F001033BB91F4B994204D01E4B1F4933
:1040780013449B0003E01E4B1E4913449B0001227E
:104088008240C4E91B31626788E7B6F5005F04D057
:10409800022ABBD9032AB7D060E7032A3FF65EAFEE
:1040A80001A151F822F000BF154000081140000896
:1040B80015400008C1400008B5F1C07F7FF44EAF3D
:1040C800A4E700BF10000240400002407000024018
:1040D800B80402403F8010FE085402581C5402588D
:1040E80030540258945402583F820010400902404C
:1040F8003F96001640590258334A344934488B4297
:1041080018BF934201F12801324D0CBF0122002251
:10411800834208BF42F001023C308B4208BF42F0A4
:1041280001023C31AB4208BF42F00102834208BFA2
:1041380042F001028B4208BF42F0010212B9264A3E
:1041480093423AD102220021244F84F83520A268F4
:1041580084F83410402A196807EA01072BD0802A0E
:104168000CBF4FF48041002122692046E668D2083E
:104178006569DFF870C042EAD602A66942EAD5024C
:10418800E56942EAD602164E42EAD5021E44256A7D
:1041980042EA1512ACFB06653A432D091143AD00FE
:1041A8001960E565FFF76EFDE26D012302F01F025D
:1041B80093404360DCE61021D6E740220323012028
:1041C800626584F83530F8BD085402581C5402580A
:1041D8003054025858540258945402580F00FEFFA5
:1041E800F8ABFDA7CDCCCCCC002800F0C1802DE9E0
:1041F800F041054690F83400012800F0BB8001200A
:1042080095F83540844285F8340007D000224FF4F1
:10421800006385F834206B65BDE8F0812E680227BD
:104228007D4C7E48DFF808C2864218BFA64200F1DE
:10423800300085F835704FF000070CBF01240024CA
:104248006F65664508BF44F001040CF1300C744FEB
:10425800864208BF44F001043030664508BF44F088
:1042680001040CF5627C864208BF44F0010400F5A5
:104278006270BE4208BF44F001044837664508BF73
:1042880044F001040CF1480C864208BF44F00104D4
:104298004830BE4208BF44F001044837664508BFAD
:1042A80044F001040CF1480C864208BF44F00104B4
:1042B800A0F58F60BE4208BF44F00104A7F58F67E0
:1042C800664508BF44F00104BE4218BF86426F6EBF
:1042D8000CBF0120002004433068D5E91A8C20F077
:1042E80001003060D5F858E0C7F8048045D0BCF12B
:1042F800000F02D0D5E91C074760EF6D3F20D5F8C5
:10430800088007F01F07B8F1400F00FA07F0CEF851
:104318000800306820F480203060736025D0B160D8
:10432800F26033682A6C23F01E0343F016033360EF
:104338001AB1336843F0080333602B6E1A68D2034E
:1043480003D51A6842F480721A60BCF1000F05D0D8
:10435800DCF8003043F48073CCF800303368002078
:1043680043F001033360BDE8F081B260F160D8E743
:10437800012070470220BDE8F081BCF1000F02D097
:10438800D5E91C0747602748DFF8A880264F46452F
:1043980018BF864208F128080CBF01200020BE4241
:1043A80008BF40F001002837464508BF40F001002B
:1043B80008F12808BE4208BF40F0010028374645EA
:1043C80008BF40F00100BE4208BF40F0010010B92C
:1043D800164886420FD1E86D0127D5F8088000F00D
:1043E8001F00B8F1400F07FA00F0CEF80400736020
:1043F8000FD0B160F26033682A6C23F00E0343F0EB
:104408000A033360002A98D0336843F0040333600A
:1044180093E7B260F160EEE74000024058000240C6
:104428001004024008540258305402589454025858
:10443800700002401C5402582DE9F0479F4A00259D
:104448009F4E82B0036882469E49846D934218BF8E
:10445800B342019508BF01260D68276818BF0026DA
:1044680021684AD03032DFF86CE29748734518BFAC
:1044780093420EF1480E0CBF01220022834208BF6E
:1044880042F001023030734508BF42F001020EF1DC
:10449800300E834208BF42F0010200F55C7073459C
:1044A80008BF42F001020EF55C7E834208BF42F06D
:1044B80001023030734508BF42F001020EF1300EA0
:1044C800834208BF42F001023030734508BF42F012
:1044D80001020EF1300E834208BF42F00102303073
:1044E800734508BF42F00102834208BF42F001024F
:1044F8001AB9764A934240F00B82DAF85C10082227
:1045080001F01F0C02FA0CF2174240F08D8127FAD5
:104518000CF2D2070CD55A69100609D5012202FA05
:104528000CF2A260DAF8542042F00202CAF85420D1
:104538004FF0040E0EFA0CF038425BD0002E4FD12B
:10454800634ADFF89091DFF880814B4518BF9342AA
:1045580009F148090CBF01220022434508BF42F077
:10456800010208F130084B4508BF42F0010209F189
:104578003009434508BF42F0010208F55C784B4515
:1045880008BF42F0010209F55C79434508BF42F0D3
:10459800010208F130084B4508BF42F0010209F159
:1045A8003009434508BF42F0010208F130084B4585
:1045B80008BF42F0010209F13009434508BF42F043
:1045C800010208F130084B4508BF42F0010243459B
:1045D80008BF42F001021AB93C4A934240F02F82C8
:1045E8001A68920706D5A060DAF8542042F004024F
:1045F800CAF85420102202FA0CFC1CEA070F6FD0EC
:10460800002E46D1324A33482F4E834218BF934278
:1046180000F148000CBF01220022B34208BF42F05B
:1046280001023036834208BF42F001023030B34203
:1046380008BF42F0010206F55C76834208BF42F0EB
:10464800010200F55C70B34208BF42F00102303647
:10465800834208BF42F001023030B34208BF42F043
:1046680001023036834208BF42F001023030B342C3
:1046780008BF42F001023036834208BF42F001020F
:10468800B34208BF42F001021AB9104A934240F0FF
:10469800DE811A68C2F3C00212B3C4F808C01A68EF
:1046A800520300F18B811A68D60503D41A6822F0E8
:1046B80008021A60DAF8403093B10DE02800024091
:1046C800100002400400002470000240B8040240B8
:1046D800580002404000024050469847DAF85C1003
:1046E80001F01F0120268E403E426AD0DAF80020F1
:1046F800A74BA848A84F824218BF9A4200F1300041
:104708000CBF01230023BA4208BF43F0010330372E
:10471800824208BF43F001033030BA4208BF43F079
:1047280001033037824208BF43F001033030BA42F8
:1047380008BF43F0010307F55C77824208BF43F0E6
:10474800010300F55C70BA4208BF43F0010330373B
:10475800824208BF43F001033030BA4208BF43F039
:1047680001033037824208BF43F001033030BA42B8
:1047780008BF43F001033037824208BF43F001030A
:10478800BA4208BF43F001031BB9844B9A4240F078
:1047980073811368C3F300139BB1A6609AF8353090
:1047A800042B136800F0148113F4802F136800F0B1
:1047B8002D811C0340F13881DAF83C300BB15046AA
:1047C8009847DAF85430002B00F0DF80DAF85430DC
:1047D800D8071FD5DAF8002004248AF83540136872
:1047E80023F0010313606E4BA3FB0535AD0A02E00D
:1047F8001368D90704D5019B0133AB420193F7D95C
:1048080000238AF834301368DB074CBF03230123E5
:104818008AF83530DAF84C30002B00F0B680504674
:1048280002B0BDE8F0471847186840070AD518686D
:1048380020F004001860A260DAF8542042F0010267
:10484800CAF8542027FA0CF2D2077FF571AE554A00
:104858005148DFF86481834218BF934200F1480051
:104868000CBF01220022434508BF42F0010208F1B3
:104878003008834208BF42F001023030434508BF88
:1048880042F0010208F55C78834208BF42F0010259
:1048980000F55C70434508BF42F0010208F130089A
:1048A800834208BF42F001023030434508BF42F05E
:1048B800010208F13008834208BF42F0010230309B
:1048C800434508BF42F0010208F13008834208BF9F
:1048D80042F001023030434508BF42F001028342F2
:1048E80008BF42F00102002A7FF415AE002E7FF4C3
:1048F80012AE04221E6802FA0CF23A4240F09F807F
:10490800102202FA0CFC17EA0C0F3FF4E9AE79E624
:10491800254A264E264DB34218BF934206F1280673
:104928000CBF01220022AB4208BF42F00102283529
:10493800B34208BF42F001022836AB4208BF42F03A
:1049480001022835B34208BF42F00102AB4208BF5A
:1049580042F0010212B9174A934216D1DAF85C50B4
:1049680004261A6805F01F05AE400E4273D057079B
:1049780071D51004666040F19F80D10300F1A280D8
:10498800DAF84830002B7FF44AAF02B0BDE8F08770
:10499800100002402800024040000240B8040240D3
:1049A800B5814E1B58000240085402581C54025846
:1049B8003054025894540258700002401B681B037C
:1049C8007FF578AEDAF84830002B7FF485AE87E6BD
:1049D80023F01603DAF840501360536923F080037C
:1049E80053613DB3136823F0080313603F23002588
:1049F800012203FA01F1DAF85030A1608AF8345044
:104A08008AF83520002B7FF40AAFBEE713F48073D1
:104A18007FF4D2AE1168012421F0100111608AF8E8
:104A280034308AF83540C7E6DAF84430002B7FF492
:104A3800C6AEC6E6DAF84830002BD3D1D6E7102246
:104A48001E6802FA0CFC17EA0C0F3FF449AE1A680C
:104A5800C2F3800220E60226AE400E4210D097072D
:104A68000ED56660140433D5D0033DD4DAF844304B
:104A7800002B7FF4D4AE88E71368C3F340038BE6BA
:104A88000826AE400E4280D011077FF57EAF196828
:104A98000122002621F00E0102FA05F51960DAF864
:104AA8004C306560CAF854208AF834608AF835209A
:104AB800002B7FF4B4AE68E7920603D41A6822F09C
:104AC80004021A60DAF84030002B7FF4A8AE5CE7E5
:104AD80012F0200208D11968012421F00A01196096
:104AE8008AF834208AF83540DAF83C30002B7FF415
:104AF80096AE4AE7406D70472DE9F04F0D6883B0D8
:104B0800002D00F0C4800023DFF82C82DFF82CE2AF
:104B180001229A4012EA050C00F0B4804C6824F097
:104B28001007022F40F0B680DF0803F0070A4FF0A5
:104B38000F0B0E6900EB87074FEA8A0AD7F8209017
:104B48000BFA0AFB06FA0AF64FEA430A29EA0B09A6
:104B58004FF0030B46EA09090BFA0AF604EA0B0BB5
:104B6800C7F820906FEA060907680BFA0AFB27EADC
:104B780006064BEA060606608768C4F3001609EACB
:104B8800070BCF689E4007FA0AF747EA0B078760CA
:104B9800476827EA020216434660C668E7008A6843
:104BA80006EA090902FA0AF242EA0902C26069D56C
:104BB800D8F8F47023F0030903F003020F2647F036
:104BC800020709F1B0499200C8F8F47009F5806944
:104BD800D8F8F47006FA02FA07F0020701974D4F69
:104BE800019EB842D9F8086026EA0A0620D007F5DF
:104BF8008067B8426BD0484FB8426DD0474FB84233
:104C080060D0474FB84271D0464FB84273D0464F34
:104C1800B84266D0454FB84272D0454FB84274D0BA
:104C2800444FB8420CBF09270A2707FA02F2164375
:104C3800C9F808606FEA0C07DEF80020E60354BFE5
:104C48003A404CEA0202CEF80020A203DEF80460E3
:104C58004FF0B04254BF3E404CEA0606CEF804601E
:104C68001668E2024FF0B04254BF3E404CEA0606D6
:104C7800A4024FF0B0441660526854BF3A404CEA60
:104C880002026260013335FA03F27FF441AF03B0E8
:104C9800BDE8F08F4FEA430A4FF00309D0F800B09F
:104CA800013F04EA090609FA0AF9012F2BEA090B60
:104CB80006FA0AF66FEA090946EA0B0606603FF6A5
:104CC8006CAF59E7032707FA02F21643B0E701274A
:104CD80007FA02F21643ABE7022707FA02F2164375
:104CE800A6E7062707FA02F21643A1E7042707FA00
:104CF80002F216439CE7052707FA02F2164397E7E4
:104D0800072707FA02F2164392E7082707FA02F282
:104D180016438DE70000025800080258000C02589C
:104D2800001002580014025800180258001C0258BB
:104D380000200258002402580044025880000058FD
:104D4800002900F0AC8000232DE9F04FDFF870A1B6
:104D580083B0DFF87091DFF87081DFF870B14FF041
:104D6800010E0EFA03F414EA010C73D023F00305C4
:104D780003F003020F26484555444FEAC202AF68C4
:104D880006FA02F607EA0607019723D058456AD0C3
:104D9800464FB8426AD0464FB84271D0454FB842E4
:104DA80073D0454FB84266D0444FB84259D0DFF867
:104DB80020E1704574D0DFF81CE170456AD0DFF857
:104DC80018E1704514BF4FF00A0E4FF0090E0EFAA5
:104DD80002F200E00022019F974219D1AF684FF01C
:104DE800B04227EA0606AE60D8F8005025EA0C055E
:104DF800C8F80050D8F8045025EA0C05C8F8045043
:104E0800156825EA0C051560556825EA0C055560F6
:104E18005A000326D0F800C00F2723FA06F596405B
:104E280003F0070200EB85054CEA060C9200C0F877
:104E380000C097402A6A22EA07022A62826822EAA8
:104E480006028260426822EA04044460C26822EAD8
:104E58000606C660013331FA03F280D103B0BDE81B
:104E6800F08F4FF0060E0EFA02F2B4E74FF0020E82
:104E78000EFA02F2AFE74FF0050E0EFA02F2AAE7B9
:104E88004FF0030E0EFA02F2A5E74FF0040E0EFAE9
:104E980002F2A0E74FF0080E0EFA02F29BE7704705
:104EA8004FF0070E0EFA02F295E700BF000802580D
:104EB800000C02580010025800140258001802583A
:104EC80000040058000002588000005800040258EE
:104ED800001C025800200258002402580369194295
:104EE80014BF01200020704702B90904816170478E
:104EF80038B5114BDA68520704D4DB6803F00703AE
:104F0800834215D10C4AD368154623F0070318438A
:104F1800D060FDF7D9FF044605E0FDF7D5FF001B7B
:104F2800B0F57A7F06D86B689B04F6D5002038BDAB
:104F3800012038BD032038BD00480258024AD36812
:104F480043F08073D360704700480258F0B44C6A4D
:104F580082B014B1B2F1406F30D18B69002B34D0DC
:104F68000E6A002E59D0056823438F68C869EF611F
:104F7800002800F0AE8013430F690C68B2F1406F4F
:104F880043EA0603CE6843EA0003C86A43EA00031B
:104F9800086B43EA000348690190486B43EA000341
:104FA800019843EA070343EA060343EA040343EA92
:104FB80080436B6160D04B68AB615DE08B6A0568CC
:104FC800013B2B618B69002BCAD10B6A002B44D0A3
:104FD800066823438D68C869F561002869D01343C2
:104FE8004D6B0F69B2F1406F43EA0003C86ACC68A1
:104FF80043EA0003086B43EA0003486943EA0503F0
:1050080043EA070343EA040343EA8043736133D066
:105018004B68B36102B0F0BC7047CD69002D6CD00D
:1050280023430668CC6AB2F1406F43EA02000F6B73
:105038004B6B40EA0500CD6840EA04000C6840EA82
:10504800070040EA03004B6940EA050040EA040013
:1050580040EA83407061DBD10EE0CB697BB95CB17B
:10506800CB6A00682343D1E90C5413434A692B43A4
:10507800234343EA8243436102B0F0BC70472343B1
:10508800CC6A0D6BB2F1406F43EA0203006843EA51
:1050980004034C6B43EA0503CD6843EA04034C69F7
:1050A80043EA050343EA84434361E5D04B688361DF
:1050B800E2E7D1E90B0513434C6B03432B43D1E9DA
:1050C80004022343034343EA8243736102B0F0BC02
:1050D800704713434F6B0C6933434A69D1E90B0C92
:1050E8000343086843EA0C033B432343034343EA6F
:1050F80082436B6102B0F0BC70471C43CE6A006803
:1051080044EA02030C684A693343D1E90C753B430E
:105118002B43234343EA8243436102B0F0BC704708
:10512800F8B50446FDF7D0FE002C55D094F8403071
:10513800012B53D00123064684F8403094F84130BF
:1051480003F0FF02002B35D0A76C2368A1681A680A
:10515800013922F4706242EA01221A6001E07A1CE5
:1051680032D19D6815F02005F9D1D4E90716E26817
:1051780028461F680A43616832431D4E42EA0162AD
:105188003E406169A76932431A4E1A6041EA070234
:105198005F6821693E4042EA0142012132435A6078
:1051A8001A680A431A60656484F84110002384F879
:1051B8004030F8BD204684F84020FDF7E9F841F278
:1051C80088331F46A364C0E7FDF77EFE801BB84204
:1051D80006D82FB12368C4E70120F8BD0220F8BD26
:1051E8000423012084F84130636C03436364DDE7E2
:1051F8002FFFFF00FEF8E0FFC8B110B590F840306F
:105208000446012B11D00268012380F8403013684E
:1052180023F001031360FDF741F900236364184686
:1052280084F8413084F8403010BD022010BD0120C0
:10523800704700BF2DE9F04104460D469046FDF742
:1052480043FE94F84030012B3BD0012384F84030D2
:1052580094F84130012BDEB206D0022600233046F6
:1052680084F84030BDE8F0810022022307466264DA
:1052780084F84130B8F1FF3F23680ED19A6812F0E4
:105288002002FBD129462046FFF760FE6B6AE3B196
:105298000123002684F84130E0E79A6812F02002E2
:1052A8001ED0FDF711FEC01B804502D3B8F1000FD8
:1052B800E0D1042384F84130636C43F00103636454
:1052C800CCE702263046BDE8F081226893689B0748
:1052D800FCD5022101230026D16084F84130BDE7C6
:1052E80029462046FFF732FE6B6A43B1D0E7FDF747
:1052F800EBFDC01B8045DCD3B8F1000FD9D0226884
:1053080093689907F3D5E4E72DE9F84304468946FD
:105318001546FDF7D9FD94F840302768012B67D072
:10532800012384F8403094F84130012B5FFA83F868
:1053380007D04FF002080023404684F84030BDE80B
:10534800F88300236364B9F1000F56D01223064690
:1053580084F841303B690133E3623B69C4F8249027
:105368000133A3627B6923F040637B61E36A002B0E
:1053780031D0691C3B4611D19A685207FCD5636A43
:105388001B7887F82030E26A636A013A0133E262E7
:10539800E26A6362F2B1691C2368EDD09B68580722
:1053A800EDD4FDF791FD801B854201D3002DF2D18C
:1053B800042384F84130636C43F00103636413E011
:1053C800BB689B070CD4FDF77FFD801B8542EFD39C
:1053D800002DEDD02768691CF2D1BB689A07FCD56F
:1053E80002234FF00008FB60012384F84130A2E754
:1053F8004FF002084046BDE8F883636C43F00803A9
:10540800636498E72DE9F843044615468946FDF795
:105418005BFD2768BA6994F84030012B6CD00123F2
:1054280084F8403094F84130012B5FFA83F807D0B4
:105438004FF002080023404684F84030BDE8F88366
:1054480000236364B9F1000F5BD02223064684F879
:1054580041303B690133A3633B69C4F830900133A1
:1054680063637B6923F0406343F080637B61BA61C7
:10547800A36B002B33D0681C3B4612D19A6812F0FC
:10548800060FFBD097F82020236B1A70A26B236BB2
:10549800013A0133A263A26B2363FAB1681C236843
:1054A800ECD09B6813F0060FECD1FDF70DFD801BC7
:1054B800854201D3002DF1D1042384F84130636C77
:1054C80043F00103636413E0BB689B070CD4FDF74A
:1054D800FBFC801B8542EFD3002DEDD02768691CAB
:1054E800F2D1BB689A07FCD502234FF00008FB6095
:1054F800012384F841309DE74FF002084046BDE89B
:10550800F883636C43F00803636493E72DE9F84379
:1055180004461D460F461646FDF7D6FC94F8403063
:10552800012B4FD0012384F8403094F84130012BEF
:105538005FFA83F807D04FF002080023404684F84A
:105548004030BDE8F883002242238146626484F833
:105558004130681C236829D19A689106FCD43268C6
:10556800394670689A62B2685862DA621A683069B5
:1055780022F44002D6F80CC042EA00064FF000625E
:10558800204646F480061E60C7F828C0FFF7DEFCF8
:10559800681C22681BD193681907FCD508210123D0
:1055A8004FF00008D16084F84130C6E79A68920647
:1055B800D5D5FDF789FCA0EB0900854212D3002D53
:1055C800C7D10FE04FF002084046BDE8F883936862
:1055D8001B07E3D4FDF778FCA0EB0900854201D353
:1055E800002DD5D1042384F84130636C43F00103C6
:1055F8006364A2E72DE9F84304460F469046FDF799
:1056080063FC94F84030012B42D0012384F84030E9
:1056180094F84130012BDEB206D002260023304632
:1056280084F84030BDE8F883002282230546D4F888
:105638004890626484F84130B9F1FF3F226814D180
:1056480093689906FCD41368D8F8041023F008036B
:10565800082943EA010313601ED039464FF040621F
:1056680020460026FFF772FCD8E793689B06EAD528
:10567800FDF72AFC401B814502D3B9F1000FDBD1AD
:10568800042384F84130636C43F001036364C5E785
:1056980002263046BDE8F883D8F8001010231163BD
:1056A800D360136843F480131360D6E7704700BFD4
:1056B80008B5006C00238363C36290F84130082B5F
:1056C8000BD103680222DA601A6842F400321A60C9
:1056D8001A6842F002021A6008BD012380F84130BE
:1056E800FFF7E4FF08BD00BF704700BF704700BF69
:1056F800704700BF704700BF704700BF704700BFCA
:10570800704700BF38B5036804469A68196855079A
:105718000ED548030CD594F84120122A75D094F878
:105728004120222A00F0A1802046FFF7E5FF38BD7E
:10573800950726D5880324D50222DA601A6822F450
:10574800E0221A6094F84120122A7AD094F8412075
:10575800222A00F0A98094F84120022A00F0D08083
:1057680094F84120082AE2D15A690121204622F002
:1057780040625A6184F84110636C3BBBFFF7B4FF89
:1057880038BD150725D4D50735D5C80333D5012528
:10579800DD601A6822F470221A60626C42F002021C
:1057A80062641A68520779D51A68E06B22F004021D
:1057B80057491A60816502F0F5FD0028B7D0636C7F
:1057C800204643F00403636484F84150FFF76EFFFA
:1057D80038BD0803D7D50822DA601A68520206D500
:1057E8001A68012122F410221A6084F84110204618
:1057F800FFF784FF38BDD00699D5CA0297D5102285
:105808002046DA60FFF77CFF38BD9A6850078BD5D1
:1058180018460EE0626A127883F82020E16A206850
:105828000139626AE1620132816862624D077FF57F
:105838007BAFE26A002AEDD1036823F4802303607A
:1058480072E71A68510709D51A68E16B22F0040259
:1058580009681A60CB6823F00103CB600123204656
:1058680084F84130FFF746FF38BD9A6852077FF544
:105878005BAF18460EE093F82010226B1170A16BF5
:1058880020680139226BA1630132816822634907CC
:105898007FF54AAFA26B002AEDD1CDE7204684F808
:1058A8004150FFF703FF38BD1A6852071DD49A68A4
:1058B80012F47C5F0FD111E093F82010226B117065
:1058C800A16B20680139226BA163013281682263D0
:1058D80011F47C5F02D0A26B002AEDD1012320468F
:1058E80084F84130FFF704FF38BD1A68E16B22F0F5
:1058F800040209681A60CB6823F00103CB60EDE766
:105908000123204684F84130FFF7F0FE38BD00BF80
:10591800B9560008002800F0EA81F8B50368044683
:10592800D9072ED5B2490A69896A02F03802102AC5
:1059380000F00481182A00F0FC806368B3F5803F0A
:1059480000F02481002B00F06281B3F5A02FA84B52
:105958001A6800F03C8222F480321A601A6822F435
:1059680080221A60FDF7B0FAA14E054605E0FDF762
:10597800ABFA401B642800F2488133689B03F6D5D4
:105988002368980700F18980D90630D5984A1369A9
:10599800926A03F03803082B00F0E080182B00F01F
:1059A800D880E369002B00F06F81914B1A681E467E
:1059B80042F080021A60FDF787FA054605E0FDF718
:1059C80083FA401B022800F220813368DB05F6D5F4
:1059D800FDF792FA41F20303984200F21A827368C3
:1059E800226A23F0F84343EA8263736023681D0741
:1059F80017D56369002B00F021817D4B5A6F1E4635
:105A080042F001025A67FDF75FFA054605E0FDF727
:105A18005BFA401B022800F2F880736F9807F6D5EE
:105A280023689A0617D5A369002B00F01A81704BDA
:105A38001A681E4642F480521A60FDF745FA054678
:105A480005E0FDF741FA401B022800F2DE803368CA
:105A58009F04F6D52368590700F19E80636AD3B185
:105A6800634A116901F03801182970D0022B1368B4
:105A7800154623F08073136000F04381FDF724FA84
:105A8800044605E0FDF720FA001B022800F2BD805D
:105A98002B689B01F6D40020F8BD554A1369926A19
:105AA80013F038032AD1524BE1681B685A0701D515
:105AB80000294CD04E4A1368164623F019030B43AD
:105AC8001360FDF701FA054605E0FDF7FDF9401BF7
